:1000000002308A007F2A00000A108A100A11820733
:1000100028340C3401340634D33466396510F93091
:100020006E36E9392E002F33D33466396510E43744
:1000300067397517000031308400831300080319F5
:100040002F280130F800F701F70B2428F80B23289C
:100050004A30F700F70B2A282D28800B21280800AA
:10006000380EF039F7000F300605770486000000DF
:1000700006143A28061008000608F700060E0F3985
:10008000F8000800831606108610061183128610E9
:100090000F3083160605F03886008312061500001F
:1000A000061400003C207808B80006100000061472
:1000B00000003C207808B70006100F3083160605B4
:1000C00086008312380EF700F030F7057708370402
:1000D000F8007808B700B71B4828351C861035187B
:1000E00086140000061100000610360EB7000F300F
:1000F000B7053708B800302036080F39B700B80008
:10010000302008000F308316060586000610861082
:10011000061183128610061106100F30B1001B2045
:100120000130AA002A08033C031C9E280330B800B3
:1001300030200530B1001B20AA0A92280230B800F6
:1001400030200530B1001B20AA012A08033C031C03
:10015000B2282A080420AB00B5012B08B6004220C3
:10016000AA0AA5288A110A129A2A320BB828BB2893
:100170004030B300BC28B30101303102B30733086B
:100180008038B400B5013408B600422008003008B9
:10019000073A0319D5280B3A0319DA28063A031946
:1001A000E228023A0319E828ED280130B100B20034
:1001B000B520F228B5010130B60042200230B1006E
:1001C0001B20F2280130B1000230B200B520F22825
:1001D000B5011030B6004220F2280130B5003008D9
:1001E000B600422008003108F80130020318FB284D
:1001F0003008F7000729F7010830B200B00DF70DFD
:10020000310877020318F700F80DB20BFE2808003A
:1002100020302B1E3030AC002A08F700AA1F182906
:10022000F709F70A7708AA002D30AC00AB172B149A
:100230002A08B0006430B100F3207708AA003030FB
:100240007807AD002A08B0000A30B100F320303042
:100250007707AF0030307807AE002C08F700303059
:100260002D0203193729AB14AB1B2B154B292C0876
:10027000AD002030AC0030302E02031943292B147E
:10028000AB1BAB144B29031D2B14031D4B292D084D
:10029000AE002030AD002B195229AB1855292B1870
:1002A00058295B292C08B000C7202D08B000C720B2
:1002B0002E08B000C7202F08B000C7200800200873
:1002C000783A03197F29503A03198E29403A0319C5
:1002D0009E29C03A0319AE29B03A0319BE29403A03
:1002E0000319CE29C03A0319D929903A0319E429F0
:1002F000403A0319EF29C03A0319FA29042A303089
:10030000B000C7202908AA001830AB00082125300A
:100310002907840083138001A90A042A3130B00020
:10032000C7202908AA001830AB000821253029076A
:100330008400831301308000A90A042A3230B000FF
:10034000C7202908AA001830AB000821253029074A
:100350008400831302308000A90A042A3330B000DD
:10036000C7202908AA001830AB000821253029072A
:100370008400831303308000A90A042A3430B000BB
:10038000C7202908AA001830AB000821253029070A
:100390008400831304308000A90A042A3530B00099
:1003A000C720253029078400831305308000A90A5F
:1003B000042A3630B000C720253029078400831373
:1003C00006308000A90A042A3730B000C720253043
:1003D00029078400831307308000A90A042A3830D3
:1003E000B000C7202530290784008313083080001F
:1003F000A90A042A3930B000C72025302907840013
:10040000831309308000A90A8A110A12A92A0B084D
:10041000AB008B13831603178C170C14000000001D
:1004200083120C087F3903194E2A0313AC000317FB
:100430000D080313AD0003170F080313AE002C08BB
:10044000B000C7202D0803178D0003132E080317D3
:100450008F0083168C170C140000000083120C0D03
:100460000E0D7F3903194E2A0313AC0003170D0834
:100470000313AD0003170F080313AE002C08B000E0
:10048000C7202D0803178D0003132E0803178F00B4
:100490008D0A03198F0A03130A2A03170313AB1BD0
:1004A0008B170800AA012A08033C031C732A253075
:1004B0002A07840083130008AB0021302A07840038
:1004C000831300082B02031D672A712A712A0C303E
:1004D00003178D0000308F00031307220030F8004F
:1004E0007C2AAA0A532A133003178D0000308F008C
:1004F000031307220130F8008A110A12B72AA90152
:1005000083161F149F141F159F1107309C0083131F
:100510001F30830501308312A1000230A200033096
:10052000A3000430A400003083168600FF3088004A
:1005300083128228831688158312881D9A2A143004
:10054000B1001B20FF308316880083120808A0002A
:100550005F298316881583128819A92A1430B100DF
:100560001B202908043C0319B62A9A2A522A630040
:02400E00313F40
:00000001FF
;PIC16F877A
;CRC=59F2  CREATED="11-Tem-23 00:00"
